{
  "_format": "hh-sol-artifact-1",
  "contractName": "VotingContract",
  "sourceName": "contracts/VotingContract.sol",
  "abi": [
    {
      "inputs": [],
      "stateMutability": "nonpayable",
      "type": "constructor"
    },
    {
      "anonymous": false,
      "inputs": [
        {
          "indexed": true,
          "internalType": "uint256",
          "name": "electionId",
          "type": "uint256"
        },
        {
          "indexed": false,
          "internalType": "string",
          "name": "title",
          "type": "string"
        },
        {
          "indexed": false,
          "internalType": "uint256",
          "name": "startTime",
          "type": "uint256"
        },
        {
          "indexed": false,
          "internalType": "uint256",
          "name": "endTime",
          "type": "uint256"
        }
      ],
      "name": "ElectionCreated",
      "type": "event"
    },
    {
      "anonymous": false,
      "inputs": [
        {
          "indexed": true,
          "internalType": "uint256",
          "name": "electionId",
          "type": "uint256"
        },
        {
          "indexed": true,
          "internalType": "address",
          "name": "voter",
          "type": "address"
        },
        {
          "indexed": false,
          "internalType": "uint256",
          "name": "partyIndex",
          "type": "uint256"
        },
        {
          "indexed": false,
          "internalType": "uint256",
          "name": "timestamp",
          "type": "uint256"
        }
      ],
      "name": "VoteCast",
      "type": "event"
    },
    {
      "inputs": [],
      "name": "admin",
      "outputs": [
        {
          "internalType": "address",
          "name": "",
          "type": "address"
        }
      ],
      "stateMutability": "view",
      "type": "function"
    },
    {
      "inputs": [
        {
          "internalType": "string",
          "name": "_title",
          "type": "string"
        },
        {
          "internalType": "string",
          "name": "_description",
          "type": "string"
        },
        {
          "internalType": "uint256",
          "name": "_startTime",
          "type": "uint256"
        },
        {
          "internalType": "uint256",
          "name": "_endTime",
          "type": "uint256"
        },
        {
          "internalType": "string[]",
          "name": "_partyNames",
          "type": "string[]"
        }
      ],
      "name": "createElection",
      "outputs": [
        {
          "internalType": "uint256",
          "name": "",
          "type": "uint256"
        }
      ],
      "stateMutability": "nonpayable",
      "type": "function"
    },
    {
      "inputs": [
        {
          "internalType": "uint256",
          "name": "",
          "type": "uint256"
        }
      ],
      "name": "elections",
      "outputs": [
        {
          "internalType": "uint256",
          "name": "id",
          "type": "uint256"
        },
        {
          "internalType": "string",
          "name": "title",
          "type": "string"
        },
        {
          "internalType": "string",
          "name": "description",
          "type": "string"
        },
        {
          "internalType": "uint256",
          "name": "startTime",
          "type": "uint256"
        },
        {
          "internalType": "uint256",
          "name": "endTime",
          "type": "uint256"
        },
        {
          "internalType": "uint256",
          "name": "totalVotes",
          "type": "uint256"
        },
        {
          "internalType": "bool",
          "name": "exists",
          "type": "bool"
        }
      ],
      "stateMutability": "view",
      "type": "function"
    },
    {
      "inputs": [
        {
          "internalType": "uint256",
          "name": "_electionId",
          "type": "uint256"
        }
      ],
      "name": "getElection",
      "outputs": [
        {
          "internalType": "string",
          "name": "title",
          "type": "string"
        },
        {
          "internalType": "string",
          "name": "description",
          "type": "string"
        },
        {
          "internalType": "uint256",
          "name": "startTime",
          "type": "uint256"
        },
        {
          "internalType": "uint256",
          "name": "endTime",
          "type": "uint256"
        },
        {
          "internalType": "string[]",
          "name": "partyNames",
          "type": "string[]"
        },
        {
          "internalType": "uint256",
          "name": "totalVotes",
          "type": "uint256"
        }
      ],
      "stateMutability": "view",
      "type": "function"
    },
    {
      "inputs": [],
      "name": "getElectionCount",
      "outputs": [
        {
          "internalType": "uint256",
          "name": "",
          "type": "uint256"
        }
      ],
      "stateMutability": "view",
      "type": "function"
    },
    {
      "inputs": [
        {
          "internalType": "uint256",
          "name": "_electionId",
          "type": "uint256"
        }
      ],
      "name": "getElectionResults",
      "outputs": [
        {
          "internalType": "uint256[]",
          "name": "",
          "type": "uint256[]"
        }
      ],
      "stateMutability": "view",
      "type": "function"
    },
    {
      "inputs": [
        {
          "internalType": "uint256",
          "name": "_electionId",
          "type": "uint256"
        }
      ],
      "name": "getElectionStatus",
      "outputs": [
        {
          "internalType": "uint8",
          "name": "",
          "type": "uint8"
        }
      ],
      "stateMutability": "view",
      "type": "function"
    },
    {
      "inputs": [
        {
          "internalType": "uint256",
          "name": "_electionId",
          "type": "uint256"
        }
      ],
      "name": "getPartyNames",
      "outputs": [
        {
          "internalType": "string[]",
          "name": "",
          "type": "string[]"
        }
      ],
      "stateMutability": "view",
      "type": "function"
    },
    {
      "inputs": [
        {
          "internalType": "uint256",
          "name": "_electionId",
          "type": "uint256"
        }
      ],
      "name": "getTotalVotes",
      "outputs": [
        {
          "internalType": "uint256",
          "name": "",
          "type": "uint256"
        }
      ],
      "stateMutability": "view",
      "type": "function"
    },
    {
      "inputs": [
        {
          "internalType": "uint256",
          "name": "_electionId",
          "type": "uint256"
        },
        {
          "internalType": "uint256",
          "name": "_partyIndex",
          "type": "uint256"
        }
      ],
      "name": "getVoteCount",
      "outputs": [
        {
          "internalType": "uint256",
          "name": "",
          "type": "uint256"
        }
      ],
      "stateMutability": "view",
      "type": "function"
    },
    {
      "inputs": [
        {
          "internalType": "uint256",
          "name": "_electionId",
          "type": "uint256"
        },
        {
          "internalType": "address",
          "name": "_voter",
          "type": "address"
        }
      ],
      "name": "hasVoted",
      "outputs": [
        {
          "internalType": "bool",
          "name": "",
          "type": "bool"
        }
      ],
      "stateMutability": "view",
      "type": "function"
    },
    {
      "inputs": [
        {
          "internalType": "uint256",
          "name": "_electionId",
          "type": "uint256"
        },
        {
          "internalType": "uint256",
          "name": "_partyIndex",
          "type": "uint256"
        },
        {
          "internalType": "address",
          "name": "_voterAddress",
          "type": "address"
        }
      ],
      "name": "vote",
      "outputs": [],
      "stateMutability": "nonpayable",
      "type": "function"
    }
  ],
  "bytecode": "0x608060405234801561001057600080fd5b50600280546001600160a01b0319163317905560008055611462806100366000396000f3fe608060405234801561001057600080fd5b50600436106100b45760003560e01c80635e6fef01116100715780635e6fef011461016057806377de959f146101865780639d71077714610199578063de2e19a0146101be578063e8ededa6146101d1578063f851a440146101f157600080fd5b8063213785a0146100b957806324785b9e146100d05780632ce35e11146100f5578063438596321461010857806350d915831461012b578063576dc73a14610140575b600080fd5b6000545b6040519081526020015b60405180910390f35b6100e36100de366004610e1a565b61021c565b60405160ff90911681526020016100c7565b6100bd610103366004610e1a565b61029d565b61011b610116366004610e4f565b6102e7565b60405190151581526020016100c7565b61013e610139366004610e7b565b61034b565b005b61015361014e366004610e1a565b610575565b6040516100c79190610f4e565b61017361016e366004610e1a565b61068f565b6040516100c79796959493929190610f68565b6100bd610194366004611073565b6107dd565b6101ac6101a7366004610e1a565b6109a3565b6040516100c796959493929190611191565b6100bd6101cc3660046111ea565b610c15565b6101e46101df366004610e1a565b610c6b565b6040516100c7919061120c565b600254610204906001600160a01b031681565b6040516001600160a01b0390911681526020016100c7565b600081815260016020526040812060090154829060ff166102585760405162461bcd60e51b815260040161024f90611250565b60405180910390fd5b6000838152600160205260409020600381015442101561027c576000925050610297565b80600401544211610291576001925050610297565b60029250505b50919050565b600081815260016020526040812060090154829060ff166102d05760405162461bcd60e51b815260040161024f90611250565b505060009081526001602052604090206008015490565b600082815260016020526040812060090154839060ff1661031a5760405162461bcd60e51b815260040161024f90611250565b505060009182526001602090815260408084206001600160a01b039390931684526007909201905290205460ff1690565b600083815260016020526040902060090154839060ff1661037e5760405162461bcd60e51b815260040161024f90611250565b600084815260016020526040902060038101544210156103e05760405162461bcd60e51b815260206004820152601860248201527f456c656374696f6e20686173206e6f7420737461727465640000000000000000604482015260640161024f565b80600401544211156104295760405162461bcd60e51b8152602060048201526012602482015271115b1958dd1a5bdb881a185cc8195b99195960721b604482015260640161024f565b6001600160a01b038316600090815260078201602052604090205460ff16156104845760405162461bcd60e51b815260206004820152600d60248201526c105b1c9958591e481d9bdd1959609a1b604482015260640161024f565b600581015484106104cd5760405162461bcd60e51b8152602060048201526013602482015272092dcecc2d8d2c840e0c2e4e8f240d2dcc8caf606b1b604482015260640161024f565b6001600160a01b03831660009081526007820160209081526040808320805460ff1916600117905586835260068401909152812080549161050d83611287565b909155505060088101805490600061052483611287565b9091555050604080518581524260208201526001600160a01b0385169187917f0271f53eebbe20450d9578f28ec279231556c34545b30e2278d754ffd39cd63c910160405180910390a35050505050565b600081815260016020526040902060090154606090829060ff166105ab5760405162461bcd60e51b815260040161024f90611250565b600083815260016020908152604080832060050180548251818502810185019093528083529193909284015b828210156106835783829060005260206000200180546105f6906112ae565b80601f0160208091040260200160405190810160405280929190818152602001828054610622906112ae565b801561066f5780601f106106445761010080835404028352916020019161066f565b820191906000526020600020905b81548152906001019060200180831161065257829003601f168201915b5050505050815260200190600101906105d7565b50505050915050919050565b6001602081905260009182526040909120805491810180546106b0906112ae565b80601f01602080910402602001604051908101604052809291908181526020018280546106dc906112ae565b80156107295780601f106106fe57610100808354040283529160200191610729565b820191906000526020600020905b81548152906001019060200180831161070c57829003601f168201915b50505050509080600201805461073e906112ae565b80601f016020809104026020016040519081016040528092919081815260200182805461076a906112ae565b80156107b75780601f1061078c576101008083540402835291602001916107b7565b820191906000526020600020905b81548152906001019060200180831161079a57829003601f168201915b505050506003830154600484015460088501546009909501549394919390925060ff1687565b6002546000906001600160a01b031633146108455760405162461bcd60e51b815260206004820152602260248201527f4f6e6c792061646d696e2063616e20706572666f726d2074686973206163746960448201526137b760f11b606482015260840161024f565b8284106108895760405162461bcd60e51b8152602060048201526012602482015271496e76616c69642074696d652072616e676560701b604482015260640161024f565b60008251116108da5760405162461bcd60e51b815260206004820152601b60248201527f4174206c65617374206f6e652070617274792072657175697265640000000000604482015260640161024f565b6000805481806108e983611287565b90915550600081815260016020819052604090912082815591925081016109108982611331565b506002810161091f8882611331565b50600381018690556004810185905583516109439060058301906020870190610d55565b506000600882015560098101805460ff1916600117905560405182907fe7a0aae5d733e07e246dea86213a1ac1b0aa8554bde889bb75c12752f44e53d990610990908b908a908a906113f1565b60405180910390a2509695505050505050565b6000818152600160205260408120600901546060918291819083908290879060ff166109e15760405162461bcd60e51b815260040161024f90611250565b6000600160008a81526020019081526020016000209050806001018160020182600301548360040154846005018560080154858054610a1f906112ae565b80601f0160208091040260200160405190810160405280929190818152602001828054610a4b906112ae565b8015610a985780601f10610a6d57610100808354040283529160200191610a98565b820191906000526020600020905b815481529060010190602001808311610a7b57829003601f168201915b50505050509550848054610aab906112ae565b80601f0160208091040260200160405190810160405280929190818152602001828054610ad7906112ae565b8015610b245780601f10610af957610100808354040283529160200191610b24565b820191906000526020600020905b815481529060010190602001808311610b0757829003601f168201915b5050505050945081805480602002602001604051908101604052809291908181526020016000905b82821015610bf8578382906000526020600020018054610b6b906112ae565b80601f0160208091040260200160405190810160405280929190818152602001828054610b97906112ae565b8015610be45780601f10610bb957610100808354040283529160200191610be4565b820191906000526020600020905b815481529060010190602001808311610bc757829003601f168201915b505050505081526020019060010190610b4c565b505050509150975097509750975097509750505091939550919395565b600082815260016020526040812060090154839060ff16610c485760405162461bcd60e51b815260040161024f90611250565b505060009182526001602090815260408084209284526006909201905290205490565b600081815260016020526040902060090154606090829060ff16610ca15760405162461bcd60e51b815260040161024f90611250565b6000838152600160205260408120600581015490919067ffffffffffffffff811115610ccf57610ccf610fbc565b604051908082528060200260200182016040528015610cf8578160200160208202803683370190505b50905060005b6005830154811015610d4c5760008181526006840160205260409020548251839083908110610d2f57610d2f611416565b602090810291909101015280610d4481611287565b915050610cfe565b50949350505050565b828054828255906000526020600020908101928215610d9b579160200282015b82811115610d9b5782518290610d8b9082611331565b5091602001919060010190610d75565b50610da7929150610dab565b5090565b80821115610da7576000610dbf8282610dc8565b50600101610dab565b508054610dd4906112ae565b6000825580601f10610de4575050565b601f016020900490600052602060002090810190610e029190610e05565b50565b5b80821115610da75760008155600101610e06565b600060208284031215610e2c57600080fd5b5035919050565b80356001600160a01b0381168114610e4a57600080fd5b919050565b60008060408385031215610e6257600080fd5b82359150610e7260208401610e33565b90509250929050565b600080600060608486031215610e9057600080fd5b8335925060208401359150610ea760408501610e33565b90509250925092565b6000815180845260005b81811015610ed657602081850181015186830182015201610eba565b506000602082860101526020601f19601f83011685010191505092915050565b600082825180855260208086019550808260051b84010181860160005b84811015610f4157601f19868403018952610f2f838351610eb0565b98840198925090830190600101610f13565b5090979650505050505050565b602081526000610f616020830184610ef6565b9392505050565b87815260e060208201526000610f8160e0830189610eb0565b8281036040840152610f938189610eb0565b9150508560608301528460808301528360a083015282151560c083015298975050505050505050565b634e487b7160e01b600052604160045260246000fd5b604051601f8201601f1916810167ffffffffffffffff81118282101715610ffb57610ffb610fbc565b604052919050565b600082601f83011261101457600080fd5b813567ffffffffffffffff81111561102e5761102e610fbc565b611041601f8201601f1916602001610fd2565b81815284602083860101111561105657600080fd5b816020850160208301376000918101602001919091529392505050565b600080600080600060a0868803121561108b57600080fd5b853567ffffffffffffffff808211156110a357600080fd5b6110af89838a01611003565b96506020915081880135818111156110c657600080fd5b6110d28a828b01611003565b96505060408801359450606088013593506080880135818111156110f557600080fd5b8801601f81018a1361110657600080fd5b80358281111561111857611118610fbc565b8060051b611127858201610fd2565b918252828101850191858101908d84111561114157600080fd5b86850192505b8383101561117d5782358681111561115f5760008081fd5b61116d8f8983890101611003565b8352509186019190860190611147565b809750505050505050509295509295909350565b60c0815260006111a460c0830189610eb0565b82810360208401526111b68189610eb0565b905086604084015285606084015282810360808401526111d68186610ef6565b9150508260a0830152979650505050505050565b600080604083850312156111fd57600080fd5b50508035926020909101359150565b6020808252825182820181905260009190848201906040850190845b8181101561124457835183529284019291840191600101611228565b50909695505050505050565b60208082526017908201527f456c656374696f6e20646f6573206e6f74206578697374000000000000000000604082015260600190565b6000600182016112a757634e487b7160e01b600052601160045260246000fd5b5060010190565b600181811c908216806112c257607f821691505b60208210810361029757634e487b7160e01b600052602260045260246000fd5b601f82111561132c57600081815260208120601f850160051c810160208610156113095750805b601f850160051c820191505b8181101561132857828155600101611315565b5050505b505050565b815167ffffffffffffffff81111561134b5761134b610fbc565b61135f8161135984546112ae565b846112e2565b602080601f831160018114611394576000841561137c5750858301515b600019600386901b1c1916600185901b178555611328565b600085815260208120601f198616915b828110156113c3578886015182559484019460019091019084016113a4565b50858210156113e15787850151600019600388901b60f8161c191681555b5050505050600190811b01905550565b6060815260006114046060830186610eb0565b60208301949094525060400152919050565b634e487b7160e01b600052603260045260246000fdfea26469706673582212200ed19b8ab8d63508713b0d129facd68f69905213a0da8a2a9ac5bdae0c4a460664736f6c63430008140033",
  "linkReferences": {},
  "deployedLinkReferences": {}
}