{
  "_format": "hh-sol-artifact-1",
  "contractName": "SBT",
  "sourceName": "contracts/SBT.sol",
  "abi": [
    {
      "inputs": [],
      "stateMutability": "nonpayable",
      "type": "constructor"
    },
    {
      "anonymous": false,
      "inputs": [
        {
          "indexed": true,
          "internalType": "uint256",
          "name": "tokenId",
          "type": "uint256"
        },
        {
          "indexed": true,
          "internalType": "address",
          "name": "owner",
          "type": "address"
        },
        {
          "indexed": false,
          "internalType": "string",
          "name": "uniqueId",
          "type": "string"
        },
        {
          "indexed": false,
          "internalType": "uint256",
          "name": "timestamp",
          "type": "uint256"
        }
      ],
      "name": "TokenIssued",
      "type": "event"
    },
    {
      "anonymous": false,
      "inputs": [
        {
          "indexed": true,
          "internalType": "uint256",
          "name": "tokenId",
          "type": "uint256"
        },
        {
          "indexed": true,
          "internalType": "address",
          "name": "owner",
          "type": "address"
        },
        {
          "indexed": false,
          "internalType": "uint256",
          "name": "timestamp",
          "type": "uint256"
        }
      ],
      "name": "TokenRevoked",
      "type": "event"
    },
    {
      "inputs": [],
      "name": "admin",
      "outputs": [
        {
          "internalType": "address",
          "name": "",
          "type": "address"
        }
      ],
      "stateMutability": "view",
      "type": "function"
    },
    {
      "inputs": [
        {
          "internalType": "address",
          "name": "",
          "type": "address"
        },
        {
          "internalType": "uint256",
          "name": "",
          "type": "uint256"
        }
      ],
      "name": "approve",
      "outputs": [
        {
          "internalType": "bool",
          "name": "",
          "type": "bool"
        }
      ],
      "stateMutability": "pure",
      "type": "function"
    },
    {
      "inputs": [
        {
          "internalType": "uint256",
          "name": "_tokenId",
          "type": "uint256"
        }
      ],
      "name": "getToken",
      "outputs": [
        {
          "internalType": "address",
          "name": "owner",
          "type": "address"
        },
        {
          "internalType": "string",
          "name": "uniqueId",
          "type": "string"
        },
        {
          "internalType": "string",
          "name": "fullName",
          "type": "string"
        },
        {
          "internalType": "bool",
          "name": "isActive",
          "type": "bool"
        },
        {
          "internalType": "uint256",
          "name": "issuedAt",
          "type": "uint256"
        }
      ],
      "stateMutability": "view",
      "type": "function"
    },
    {
      "inputs": [
        {
          "internalType": "address",
          "name": "_owner",
          "type": "address"
        }
      ],
      "name": "getTokenByOwner",
      "outputs": [
        {
          "internalType": "uint256",
          "name": "",
          "type": "uint256"
        }
      ],
      "stateMutability": "view",
      "type": "function"
    },
    {
      "inputs": [
        {
          "internalType": "string",
          "name": "_uniqueId",
          "type": "string"
        }
      ],
      "name": "getTokenByUniqueId",
      "outputs": [
        {
          "internalType": "uint256",
          "name": "",
          "type": "uint256"
        }
      ],
      "stateMutability": "view",
      "type": "function"
    },
    {
      "inputs": [],
      "name": "getTotalSupply",
      "outputs": [
        {
          "internalType": "uint256",
          "name": "",
          "type": "uint256"
        }
      ],
      "stateMutability": "view",
      "type": "function"
    },
    {
      "inputs": [
        {
          "internalType": "address",
          "name": "_owner",
          "type": "address"
        }
      ],
      "name": "hasActiveSBT",
      "outputs": [
        {
          "internalType": "bool",
          "name": "",
          "type": "bool"
        }
      ],
      "stateMutability": "view",
      "type": "function"
    },
    {
      "inputs": [
        {
          "internalType": "string",
          "name": "_uniqueId",
          "type": "string"
        }
      ],
      "name": "isUniqueIdRegistered",
      "outputs": [
        {
          "internalType": "bool",
          "name": "",
          "type": "bool"
        }
      ],
      "stateMutability": "view",
      "type": "function"
    },
    {
      "inputs": [
        {
          "internalType": "address",
          "name": "_to",
          "type": "address"
        },
        {
          "internalType": "string",
          "name": "_uniqueId",
          "type": "string"
        },
        {
          "internalType": "string",
          "name": "_fullName",
          "type": "string"
        }
      ],
      "name": "issueSBT",
      "outputs": [
        {
          "internalType": "uint256",
          "name": "",
          "type": "uint256"
        }
      ],
      "stateMutability": "nonpayable",
      "type": "function"
    },
    {
      "inputs": [
        {
          "internalType": "address",
          "name": "",
          "type": "address"
        }
      ],
      "name": "ownerToToken",
      "outputs": [
        {
          "internalType": "uint256",
          "name": "",
          "type": "uint256"
        }
      ],
      "stateMutability": "view",
      "type": "function"
    },
    {
      "inputs": [
        {
          "internalType": "uint256",
          "name": "_tokenId",
          "type": "uint256"
        }
      ],
      "name": "reactivateSBT",
      "outputs": [],
      "stateMutability": "nonpayable",
      "type": "function"
    },
    {
      "inputs": [
        {
          "internalType": "uint256",
          "name": "_tokenId",
          "type": "uint256"
        }
      ],
      "name": "revokeSBT",
      "outputs": [],
      "stateMutability": "nonpayable",
      "type": "function"
    },
    {
      "inputs": [
        {
          "internalType": "uint256",
          "name": "",
          "type": "uint256"
        }
      ],
      "name": "tokens",
      "outputs": [
        {
          "internalType": "uint256",
          "name": "tokenId",
          "type": "uint256"
        },
        {
          "internalType": "address",
          "name": "owner",
          "type": "address"
        },
        {
          "internalType": "string",
          "name": "uniqueId",
          "type": "string"
        },
        {
          "internalType": "string",
          "name": "fullName",
          "type": "string"
        },
        {
          "internalType": "bool",
          "name": "isActive",
          "type": "bool"
        },
        {
          "internalType": "uint256",
          "name": "issuedAt",
          "type": "uint256"
        }
      ],
      "stateMutability": "view",
      "type": "function"
    },
    {
      "inputs": [
        {
          "internalType": "address",
          "name": "",
          "type": "address"
        },
        {
          "internalType": "uint256",
          "name": "",
          "type": "uint256"
        }
      ],
      "name": "transfer",
      "outputs": [
        {
          "internalType": "bool",
          "name": "",
          "type": "bool"
        }
      ],
      "stateMutability": "pure",
      "type": "function"
    },
    {
      "inputs": [
        {
          "internalType": "address",
          "name": "",
          "type": "address"
        },
        {
          "internalType": "address",
          "name": "",
          "type": "address"
        },
        {
          "internalType": "uint256",
          "name": "",
          "type": "uint256"
        }
      ],
      "name": "transferFrom",
      "outputs": [
        {
          "internalType": "bool",
          "name": "",
          "type": "bool"
        }
      ],
      "stateMutability": "pure",
      "type": "function"
    },
    {
      "inputs": [
        {
          "internalType": "string",
          "name": "",
          "type": "string"
        }
      ],
      "name": "uniqueIdToToken",
      "outputs": [
        {
          "internalType": "uint256",
          "name": "",
          "type": "uint256"
        }
      ],
      "stateMutability": "view",
      "type": "function"
    }
  ],
  "bytecode": "0x608060405234801561001057600080fd5b50600480546001600160a01b0319163317905560016000556110b8806100376000396000f3fe608060405234801561001057600080fd5b50600436106101005760003560e01c80634f64b2be11610097578063c984e45c11610066578063c984e45c14610238578063e4b50cb81461024b578063ee2c888e1461026f578063f851a4401461028257600080fd5b80634f64b2be146101e057806363771a0f14610205578063a9059cbb14610105578063c4e41b221461023057600080fd5b80632bf79c94116100d35780632bf79c941461017c57806337a28e3b146101a557806339f920ab146101ba5780634caa7799146101cd57600080fd5b8063095ea7b3146101055780630ce5aeef1461012d5780631a971d0b1461015b57806323b872dd1461016e575b600080fd5b610118610113366004610b61565b6102ad565b60405190151581526020015b60405180910390f35b61014d61013b366004610b8b565b60026020526000908152604090205481565b604051908152602001610124565b61014d610169366004610c50565b610300565b610118610113366004610c8d565b61014d61018a366004610b8b565b6001600160a01b031660009081526002602052604090205490565b6101b86101b3366004610cc9565b610328565b005b6101186101c8366004610b8b565b61043d565b61014d6101db366004610ce2565b610481565b6101f36101ee366004610cc9565b610721565b60405161012496959493929190610da6565b61014d610213366004610c50565b805160208183018101805160038252928201919093012091525481565b61014d610875565b6101b8610246366004610cc9565b61088b565b61025e610259366004610cc9565b610964565b604051610124959493929190610df8565b61011861027d366004610c50565b610b10565b600454610295906001600160a01b031681565b6040516001600160a01b039091168152602001610124565b600060405162461bcd60e51b81526004016102f7906020808252818101527f5342543a20746f6b656e7320617265206e6f6e2d7472616e7366657261626c65604082015260600190565b60405180910390fd5b60006003826040516103129190610e43565b9081526020016040518091039020549050919050565b6004546001600160a01b031633146103525760405162461bcd60e51b81526004016102f790610e5f565b6000818152600160208190526040909120015481906001600160a01b031661038c5760405162461bcd60e51b81526004016102f790610ea1565b6000828152600160205260409020600481015460ff166103e65760405162461bcd60e51b8152602060048201526015602482015274151bdad95b88185b1c9958591e481c995d9bdad959605a1b60448201526064016102f7565b60048101805460ff1916905560018101546040514281526001600160a01b039091169084907f5c7cab5bcfc3e80654dfbd80032b4dcc884ebf15dab0e41d1964a7948151eea79060200160405180910390a3505050565b6001600160a01b0381166000908152600260205260408120548082036104665750600092915050565b60009081526001602052604090206004015460ff1692915050565b6004546000906001600160a01b031633146104ae5760405162461bcd60e51b81526004016102f790610e5f565b6001600160a01b0384166104f65760405162461bcd60e51b815260206004820152600f60248201526e496e76616c6964206164647265737360881b60448201526064016102f7565b6001600160a01b0384166000908152600260205260409020541561055c5760405162461bcd60e51b815260206004820152601860248201527f5573657220616c726561647920686173206120746f6b656e000000000000000060448201526064016102f7565b60038360405161056c9190610e43565b9081526020016040518091039020546000146105ca5760405162461bcd60e51b815260206004820152601c60248201527f556e6971756520494420616c726561647920726567697374657265640000000060448201526064016102f7565b6000805481806105d983610ee5565b909155506040805160c0810182528281526001600160a01b0388811660208084019182528385018a8152606085018a90526001608086018190524260a08701526000888152928190529590912084518155915194820180546001600160a01b0319169590931694909417909155915192935091600282019061065b9082610f87565b50606082015160038201906106709082610f87565b50608082015160048201805460ff191691151591909117905560a0909101516005909101556001600160a01b038516600090815260026020526040908190208290555181906003906106c3908790610e43565b908152602001604051809103902081905550846001600160a01b0316817fef49a1d15c23631166ad74c166c00a2d0e47d0c15daf8c21f98d753978437c408642604051610711929190611047565b60405180910390a3949350505050565b60016020819052600091825260409091208054918101546002820180546001600160a01b03909216929161075490610efe565b80601f016020809104026020016040519081016040528092919081815260200182805461078090610efe565b80156107cd5780601f106107a2576101008083540402835291602001916107cd565b820191906000526020600020905b8154815290600101906020018083116107b057829003601f168201915b5050505050908060030180546107e290610efe565b80601f016020809104026020016040519081016040528092919081815260200182805461080e90610efe565b801561085b5780601f106108305761010080835404028352916020019161085b565b820191906000526020600020905b81548152906001019060200180831161083e57829003601f168201915b505050506004830154600590930154919260ff1691905086565b600060016000546108869190611069565b905090565b6004546001600160a01b031633146108b55760405162461bcd60e51b81526004016102f790610e5f565b6000818152600160208190526040909120015481906001600160a01b03166108ef5760405162461bcd60e51b81526004016102f790610ea1565b6000828152600160205260409020600481015460ff16156109525760405162461bcd60e51b815260206004820152601760248201527f546f6b656e20697320616c72656164792061637469766500000000000000000060448201526064016102f7565b600401805460ff191660011790555050565b60008181526001602081905260408220015460609081908390819086906001600160a01b03166109a65760405162461bcd60e51b81526004016102f790610ea1565b600087815260016020819052604090912090810154600482015460058301546002840180546001600160a01b03909416939092600386019260ff9091169184906109ef90610efe565b80601f0160208091040260200160405190810160405280929190818152602001828054610a1b90610efe565b8015610a685780601f10610a3d57610100808354040283529160200191610a68565b820191906000526020600020905b815481529060010190602001808311610a4b57829003601f168201915b50505050509350828054610a7b90610efe565b80601f0160208091040260200160405190810160405280929190818152602001828054610aa790610efe565b8015610af45780601f10610ac957610100808354040283529160200191610af4565b820191906000526020600020905b815481529060010190602001808311610ad757829003601f168201915b5050505050925096509650965096509650505091939590929450565b600080600383604051610b239190610e43565b9081526020016040518091039020549050806000036104665750600092915050565b80356001600160a01b0381168114610b5c57600080fd5b919050565b60008060408385031215610b7457600080fd5b610b7d83610b45565b946020939093013593505050565b600060208284031215610b9d57600080fd5b610ba682610b45565b9392505050565b634e487b7160e01b600052604160045260246000fd5b600082601f830112610bd457600080fd5b813567ffffffffffffffff80821115610bef57610bef610bad565b604051601f8301601f19908116603f01168101908282118183101715610c1757610c17610bad565b81604052838152866020858801011115610c3057600080fd5b836020870160208301376000602085830101528094505050505092915050565b600060208284031215610c6257600080fd5b813567ffffffffffffffff811115610c7957600080fd5b610c8584828501610bc3565b949350505050565b600080600060608486031215610ca257600080fd5b610cab84610b45565b9250610cb960208501610b45565b9150604084013590509250925092565b600060208284031215610cdb57600080fd5b5035919050565b600080600060608486031215610cf757600080fd5b610d0084610b45565b9250602084013567ffffffffffffffff80821115610d1d57600080fd5b610d2987838801610bc3565b93506040860135915080821115610d3f57600080fd5b50610d4c86828701610bc3565b9150509250925092565b60005b83811015610d71578181015183820152602001610d59565b50506000910152565b60008151808452610d92816020860160208601610d56565b601f01601f19169290920160200192915050565b8681526001600160a01b038616602082015260c060408201819052600090610dd090830187610d7a565b8281036060840152610de28187610d7a565b9415156080840152505060a00152949350505050565b6001600160a01b038616815260a060208201819052600090610e1c90830187610d7a565b8281036040840152610e2e8187610d7a565b94151560608401525050608001529392505050565b60008251610e55818460208701610d56565b9190910192915050565b60208082526022908201527f4f6e6c792061646d696e2063616e20706572666f726d2074686973206163746960408201526137b760f11b606082015260800190565b602080825260149082015273151bdad95b88191bd95cc81b9bdd08195e1a5cdd60621b604082015260600190565b634e487b7160e01b600052601160045260246000fd5b600060018201610ef757610ef7610ecf565b5060010190565b600181811c90821680610f1257607f821691505b602082108103610f3257634e487b7160e01b600052602260045260246000fd5b50919050565b601f821115610f8257600081815260208120601f850160051c81016020861015610f5f5750805b601f850160051c820191505b81811015610f7e57828155600101610f6b565b5050505b505050565b815167ffffffffffffffff811115610fa157610fa1610bad565b610fb581610faf8454610efe565b84610f38565b602080601f831160018114610fea5760008415610fd25750858301515b600019600386901b1c1916600185901b178555610f7e565b600085815260208120601f198616915b8281101561101957888601518255948401946001909101908401610ffa565b50858210156110375787850151600019600388901b60f8161c191681555b5050505050600190811b01905550565b60408152600061105a6040830185610d7a565b90508260208301529392505050565b8181038181111561107c5761107c610ecf565b9291505056fea26469706673582212202f68a24659038e7468ea07c1d2d0d2da2f67e49d11094c0f3652df8ab4fa922c64736f6c63430008140033",
  "linkReferences": {},
  "deployedLinkReferences": {}
}